S0140000547261666669634C696768742E7372656359
S11300000C942A000C9447000C9447000C9447006D
S11300100C9447000C94C1050C9447000C944700C1
S11300200C9447000C9447000C9447000C94470030
S11300300C9447000C9447000C9447000C94470020
S11300400C9447000C9447000C9447000C94470010
S11300500C94470011241FBECFE5D8E0DEBFCDBF0E
S113006010E0A0E6B0E0EAEDFBE002C005900D92DE
S1130070A037B107D9F710E0A0E7B0E001C01D92A6
S1130080A137B107E1F70E943E050C94EB050C94EF
S11300900000843409F471C0853448F4823499F141
S11300A0833408F04DC0813409F083C00FC0823618
S11300B051F1833620F4813609F07BC007C08336C2
S11300C009F43EC0843609F074C057C0413069F465
S11300D02AB381E090E0AC0102C0440F551F6A9539
S11300E0E2F7BA01622B6ABB08952AB381E090E07B
S11300F0AC0102C0440F551F6A95E2F7BA0160953E
S113010062236ABB0895413069F427B381E090E02B
S1130110AC0102C0440F551F6A95E2F7BA01622B85
S113012067BB089527B381E090E0AC0102C0440F9F
S1130130551F6A95E2F7BA016095622367BB08957B
S1130140413069F424B381E090E0AC0102C0440F73
S1130150551F6A95E2F7BA01622B64BB089524B374
S113016081E090E0AC0102C0440F551F6A95E2F7AC
S1130170BA016095622364BB0895413069F421B3E8
S113018081E090E0AC0102C0440F551F6A95E2F78C
S1130190BA01622B61BB089521B381E090E0AC0108
S11301A002C0440F551F6A95E2F7BA0160956223B5
S11301B061BB0895843409F471C0853448F48234F1
S11301C099F1833408F04DC0813409F083C00FC025
S11301D0823651F1833620F4813609F07BC007C0A2
S11301E0833609F43EC0843609F074C057C04130E8
S11301F069F42BB381E090E0AC0102C0440F551FB9
S11302006A95E2F7BA01622B6BBB08952BB381E0C8
S113021090E0AC0102C0440F551F6A95E2F7BA01A1
S1130220609562236BBB0895413069F428B381E083
S113023090E0AC0102C0440F551F6A95E2F7BA0181
S1130240622B68BB089528B381E090E0AC0102C042
S1130250440F551F6A95E2F7BA016095622368BBA3
S11302600895413069F425B381E090E0AC0102C007
S1130270440F551F6A95E2F7BA01622B65BB0895D6
S113028025B381E090E0AC0102C0440F551F6A958C
S1130290E2F7BA016095622365BB0895413069F4C1
S11302A022B381E090E0AC0102C0440F551F6A956F
S11302B0E2F7BA01622B62BB089522B381E090E0B9
S11302C0AC0102C0440F551F6A95E2F7BA0160956C
S11302D0622362BB0895843409F43DC0853440F43C
S11302E08234F9F0833450F5813409F040C00CC0F5
S11302F08236B9F0833618F48136C9F505C08336E1
S1130300E9F08436A1F527C02BB381E090E0AC017D
S113031002C0440F551F6A95E2F7BA0162276BBB0E
S1130320089528B381E090E0AC0102C0440F551F4A
S11303306A95E2F7BA01622768BB089525B381E0A4
S113034090E0AC0102C0440F551F6A95E2F7BA0170
S1130350622765BB089522B381E090E0AC0102C03E
S1130360440F551F6A95E2F7BA01622762BB0895EC
S1130370843409F44EC0853440F4823431F183343A
S1130380B0F5813409F057C00EC08236F1F08336DF
S113039020F4813609F04FC006C0833641F184361B
S11303A009F049C036C029B381E090E0062E02C0AE
S11303B0880F991F0A94E2F730E08223932302C046
S11303C0959587956A95E2F7089526B381E090E0C4
S11303D0062E02C0880F991F0A94E2F730E08223A8
S11303E0932302C0959587956A95E2F7089523B300
S11303F081E090E0062E02C0880F991F0A94E2F76C
S113040030E08223932302C0959587956A95E2F79D
S1130410089520B381E090E0062E02C0880F991F52
S11304200A94E2F730E08223932302C095958795DE
S11304306A95E2F7089580E008958434D9F085340C
S113044038F4823499F0833498F48134A1F40CC0E4
S1130450823661F0833618F4813669F405C0833638
S113046039F0843641F406C06ABB089567BB089529
S113047064BB089561BB08958434D9F0853438F49D
S1130480823499F0833498F48134A1F40CC0823618
S113049061F0833618F4813669F405C0833639F087
S11304A0843641F406C06BBB089568BB089565BBF0
S11304B0089562BB08958434D9F0853438F48234C5
S11304C099F0833498F48134A9F40CC0823661F035
S11304D0833618F4813671F405C0833639F08436D6
S11304E049F406C089B3089586B3089583B3089583
S11304F080B3089580E00895843409F1853438F494
S11305008234A9F08334B8F48134E1F40CC0823627
S113051071F0833618F48136A9F405C0833659F096
S1130520843681F40CC08BB380958BBB089588B35B
S1130530809588BB089585B3809585BB089582B363
S1130540809582BB0895843409F471C0853448F4DD
S1130550823499F1833408F04DC0813409F083C0AA
S11305600FC0823651F1833620F4813609F07BC006
S113057007C0833609F43EC0843609F074C057C0FE
S1130580413069F42BB381E090E0AC0102C0440F28
S1130590551F6A95E2F7BA01622B6BBB08952BB322
S11305A081E090E0AC0102C0440F551F6A95E2F768
S11305B0BA01609562236BBB0895413069F428B396
S11305C081E090E0AC0102C0440F551F6A95E2F748
S11305D0BA01622B68BB089528B381E090E0AC01B6
S11305E002C0440F551F6A95E2F7BA016095622371
S11305F068BB0895413069F425B381E090E0AC0113
S113060002C0440F551F6A95E2F7BA01622B65BB1D
S1130610089525B381E090E0AC0102C0440F551F5A
S11306206A95E2F7BA016095622365BB089541308B
S113063069F422B381E090E0AC0102C0440F551F7D
S11306406A95E2F7BA01622B62BB089522B381E096
S113065090E0AC0102C0440F551F6A95E2F7BA015D
S11306606095622362BB08956F70843451F18534C0
S113067038F48234C1F08334E8F4813441F50CC099
S1130680823689F0833618F4813609F505C083363D
S113069089F08436E1F415C08BB3807F8BBB8BB3B8
S11306A0682B6BBB089588B3807F88BB88B3682BA5
S11306B068BB089585B3807F85BB85B3682B65BB14
S11306C0089582B3807F82BB82B3682B62BB089596
S11306D06295607F843451F1853438F48234C1F0FA
S11306E08334E8F4813441F50CC0823689F08336D2
S11306F018F4813609F505C0833689F08436E1F4AF
S113070015C08BB38F708BBB8BB3682B6BBB0895F9
S113071088B38F7088BB88B3682B68BB089585B392
S11307208F7085BB85B3682B65BB089582B38F70CA
S113073082BB82B3682B62BB089582E460E041E02F
S11307400E94DA008FE99FE00197F1F700C00000F2
S113075082E460E040E00E94DA008FE99FE00197C4
S1130760F1F700C000000895CF93C82F82E461E040
S113077040E00E94DA006C2F62956F7081E40E9461
S113078068030E949D0381E46C2F0E9468030E9409
S11307909D038FEC97E00197F1F700C00000CF9123
S11307A008958FEF91EEA4E081509040A040E1F7CE
S11307B000C0000081E464E041E00E94490081E45B
S11307C065E041E00E94490081E466E041E00E9466
S11307D0490081E467E041E00E94490082E460E06E
S11307E041E00E94490082E461E041E00E94490046
S11307F082E462E041E00E94490082E462E040E079
S11308000E94DA0082E00E94B403AFE1BEE41197D3
S1130810F1F700C0000088E20E94B4038FEC97E077
S11308200197F1F700C000008CE00E94B403AFEC24
S1130830B7E01197F1F700C0000081E00E94B40313
S11308408FE19EE40197F1F700C0000086E00E946A
S1130850B403AFECB7E01197F1F700C000000895BE
S1130860CF93C82F82E461E041E00E94DA006C2F4C
S113087062956F7081E40E9468030E949D0381E485
S11308806C2F0E9468030E949D03CF910895CF931B
S1130890DF93EC018881882331F021960E94300493
S11308A089918823D9F7DF91CF91089581E00E943F
S11308B0B4038FE19EE40197F1F700C000000895AE
S11308C0982F9150923068F4653158F4662349F0BA
S11308D0813019F4862F815802C0862F81540E94DA
S11308E0B4030895803420F080E80E94B40308958E
S11308F080648F770E94B403089541E00E94490008
S113090008956FEF0E941D02089541E00E94DA00ED
S1130910089540E00E94DA0008950E946B01089552
S11309200E94B80108956130C9F492B5986092BDEF
S113093095B5916095BD95B59D7F95BD95B5946030
S113094095BD95B59F7B95BD95B5977F95BD8195D3
S113095084BD789489B7806489BF089592B59860FE
S113096092BD95B5916095BD95B59D7F95BD95B5A5
S1130970946095BD95B59F7B95BD95B5977F95BDC5
S1130980819584BD08956130C9F492B5986092BD93
S113099095B5916095BD95B5926095BD95B59460FA
S11309A095BD95B59F7B95BD95B5986095BD14BCD7
S11309B083BD789489B7806889BF089592B598609B
S11309C092BD95B5916095BD95B5926095BD95B56F
S11309D0946095BD95B59F7B95BD95B5986095BD83
S11309E014BC83BD08958F9A95B5916095BD95B556
S11309F0926095BD95B5946095BD95B59F7B95BD69
S1130A0095B5986095BD95B5906195BD95B59F7D5B
S1130A1095BD14BC83BD08958F9A95B5916095BD1D
S1130A2095B5926095BD95B5946095BD95B5906466
S1130A3095BD95B5986095BD95B5906195BD95B5F5
S1130A40906295BD14BC83BD08958F9A95B591604D
S1130A5095BD95B5926095BD95B5946095BD95B5D8
S1130A60906495BD95B5977F95BD95B5906195BDFD
S1130A7095B5906295BD14BC83BD089584E460E08F
S1130A800E947D0484E461E00E947D0484E462E0C9
S1130A900E947D040E94D10380E061E00E949304DF
S1130AA080E690E00E944704CAE00F2EF3E0FF2E98
S1130AB0F02D07E084E462E00E9485041C2F81E0AD
S1130AC060E10E946004812F6C2F0E94D205D92F0F
S1130AD0805D0E9430048D2F805D0E9430048091DF
S1130AE07000882361F311501092700011233CF7B9
S1130AF084E462E00E94890484E461E00E94850445
S1130B001F2D81E060E10E946004812F6C2F0E9400
S1130B10D205D92F805D0E9430048D2F805D0E9404
S1130B20300480917000882361F31150109270009A
S1130B3011233CF784E461E00E94890484E460E0CA
S1130B400E948504102F81E060E10E946004812FDF
S1130B506C2F0E94D205D92F805D0E9430048D2F06
S1130B60805D0E94300480917000882361F31150ED
S1130B701092700011233CF784E460E00E94890421
S1130B8099CF1F920F920FB60F9211248F938091D9
S1130B9070008F5F809370008F910F900FBE0F9045
S1130BA01F90189587FB082E062687FD819567FD03
S1130BB0619505D00EF4919507FC81950895991BD4
S1130BC079E004C0991F961708F0961B881F7A9540
S10D0BD0C9F780950895F894FFCF4B
S1130BDA52656D61696E696E672054696D6520009E
S9030000FC
